:020000020000FC
:100000000C9435000C949E060C94AF060C94C0061C
:100010000C9434000C948D060C9434000C94340031
:100020000C9434000C9434000C9434000C94340080
:100030000C9434000C9434000C9434000C94340070
:100040000C9434000C9434000C9434000C94340060
:100050000C9434000C9434000C9434000C94340050
:100060000C9434000C94340018950FEF0DBF04E08D
:100070000EBF0FE704B900EC07B901EF0AB905E0BC
:100080000093680000E800936B0002E000936D00AD
:1000900005E00093690003E00DBB04E00093B100AC
:1000A00002E00093810000270093180200931F02D2
:1000B0000093220200932002009321020093230266
:1000C0000FEF00931D02E6E0F0E01FD700937801E8
:1000D000E7E0F0E01AD700937901E8E0F0E015D707
:1000E00000937A0134D700E0F7D705E0019308E7E1
:1000F000019300E001933ED72AD70EE1009300025E
:1001000000E0009301025CD735D754F420D70EE10C
:10011000E3D705E001930CED019300E001932AD7AA
:1001200016D700E0D9D706E0019300E4019300E080
:10013000019320D70CD70EE10093000200E000935A
:1001400001023ED717D754F002D70EE1C5D705E01C
:1001500001930CED019300E001930CD76CED75E079
:10016000862E972EA62EB72EE62EF72E6EE774E07B
:10017000C62ED72E78942E9AEAEFC6D52E98FAE09E
:10018000E8ECC2D5FA95E1F755D554D5E0D600E0B4
:10019000A3D700E0019303E0019303E30193EAD6C0
:1001A000D6D60BE10093000200E00093010208D7CD
:1001B000E1D60CF05AC0CBD60DE10093000200E06E
:1001C00000930102FDD6D6D60CF48EC053E02E9AD1
:1001D000E0E09AD52E98E0E097D55A95C1F7E2E194
:1001E00093D5DFD5B4D600E077D701E0019303E3E0
:1001F000019303E30193BED6AAD601E00093000267
:1002000000E000930102DCD6B5D6E0E014F59FD6FD
:1002100002E00093000200E000930102D1D6AAD6CA
:10022000E1E0BCF494D603E00093000200E0009308
:100230000102C6D69FD6E2E064F489D604E00093BA
:10024000000200E000930102BBD694D6E3E00CF478
:10025000C6CFF0E05AD660E806275DD62E9AE4E6CF
:1002600053D52E98E4E650D5F9CF71D60DE1009321
:10027000000200E000930102A3D67CD60CF057C028
:1002800052E02E9AE0E040D52E98E0E03DD55A9518
:10029000C1F72E9AE2E138D584D559D609E000930A
:1002A000000204E00093010290D664D650D60AE022
:1002B0000093000204E00093010287D65BD647D684
:1002C0000BE00093000204E0009301027ED652D6B8
:1002D0003ED60CE00093000204E00093010275D6C4
:1002E00049D6CBD3D4D3D6CF5AE02E9AE0E00CD562
:1002F0002E98E0E009D55A95C1F70FEF009323023D
:1003000050D525D60EE10093000203E000930102D0
:100310005CD630D600917801E6E0FDD500917901F8
:10032000E7E0F9D500917A01E8E0F5D597CFFFD560
:1003300038D500912202002309F43AC008D600E023
:10034000CBD60FEF019300E0019300E0019312D6AA
:10035000FED503E00093000200E00093010230D6D6
:1003600009D664F40091210203950093210204361A
:1003700009F023C0002700931F021AC0E8D500E04F
:100380000093000211D6F6D5E2D503E000930002F7
:1003900000E00093010214D6EDD554F00091200244
:1003A000039500932002043641F40FEF00931F02DF
:1003B00000270093210200932002009122020023D3
:1003C00009F460C000911D02039519F000931D020D
:1003D0005CC0BDD506E0E1D5CDD5B9D507E0DDD50A
:1003E000C9D5B5D508E0D9D5C5D550E10AD4AFD522
:1003F00006E0009300020DE00093010203D6BAD597
:10040000A6D507E0009300020EE000930102FAD5A2
:10041000B1D59DD508E0009300020FE000930102E2
:10042000F1D5A8D55A9511F792D506E000930002B0
:1004300004E0009301023CD69DD589D507E00093E6
:10044000000204E00093010233D694D580D508E081
:100450000093000204E0009301022AD68BD50FEF2F
:100460000093180200931D02E5D371D501E195D5E3
:1004700081D56DD502E191D57DD569D503E18DD5C5
:1004800079D503C0002700931D02BBD360D50DE0D2
:100490000093000206E000930102B9D56BD557D551
:1004A0000EE00093000207E000930102B0D562D590
:1004B0004ED50FE00093000208E000930102A7D59B
:1004C00059D545D509E00093000204E000930102EC
:1004D0007CD550D53CD50AE00093000204E000939F
:1004E000010273D547D533D50BE00093000204E039
:1004F000009301026AD53ED52AD50CE00093000294
:1005000004E00093010261D535D500911A02002361
:1005100032F41DD50DE00093000246D52BD517D53A
:100520000DE00093000202E000930102C1D522D544
:100530000ED501E00093000205E000930102B8D55A
:1005400019D505D507E1009300020DE000930102E3
:100550003CD510D5FCD407E10093000201E00093E4
:10056000010250D507D5F3D401E10093000207E161
:100570000093010247D5FED4EAD409E100930002BA
:1005800001E10093010221D5F5D4E1D40AE1A4D51B
:1005900000E001930AEF019300E00193EBD440D215
:1005A000D6D401E10093000209E1009301020DD5C8
:1005B000E1D4CDD407E1009300020BE100930102E6
:1005C0002BD5D8D4C4D400E00093000201E10093FD
:1005D0000102FBD4CFD4BBD400E0009300020CE1B5
:1005E0000093010219D5C6D4B2D407E100930002EA
:1005F00000E00093010206D5BDD4A9D409E0009320
:10060000000207E100930102FDD4B4D4A0D40AE0B3
:100610000093000207E100930102F4D4ABD497D415
:100620000BE00093000207E100930102F0D4A2D492
:100630008ED40CE00093000207E100930102E7D49E
:1006400099D400911B02002332F481D40EE0009370
:100650000002AAD48FD47BD40EE00093000202E003
:100660000093010225D586D472D402E000930002E3
:1006700005E0009301021CD57DD469D407E1009305
:1006800000020EE000930102A0D474D460D407E10C
:100690000093000202E000930102B4D46BD457D45B
:1006A00002E10093000207E100930102ABD462D49F
:1006B0004ED409E10093000202E10093010285D4C7
:1006C00059D445D40AE108D500E001930AEF01931B
:1006D00000E001934FD4A4D13AD402E10093000288
:1006E00009E10093010271D445D431D407E10093AC
:1006F00000020BE1009301028FD43CD4BED127D479
:1007000000E00093000202E1009301025ED432D4C3
:100710001ED400E0009300020CE1009301027CD49F
:1007200029D415D407E10093000200E000930102F0
:1007300069D420D40CD409E00093000207E10093AF
:10074000010260D417D403D40AE00093000207E149
:10075000009301025CD40ED4FAD30BE000930002A4
:1007600007E1009301024ED405D4F1D30CE00093CD
:10077000000207E1009301024AD4FCD300911C025D
:10078000002332F4E4D30FE0009300020DD4F2D33F
:10079000DED30FE00093000202E00093010288D450
:1007A000E9D3D5D303E00093000205E000930102F2
:1007B0007FD4E0D3CCD307E1009300020FE0009395
:1007C000010203D4D7D3C3D307E10093000203E0AF
:1007D0000093010217D4CED3BAD303E100930002F1
:1007E00007E1009301020ED4C5D3B1D309E1009310
:1007F000000203E100930102E8D3BCD3A8D30AE1CD
:100800006BD400E001930AEF019300E00193B2D3AF
:1008100007D19DD303E10093000209E10093010297
:10082000D4D3A8D394D307E1009300020DE1009341
:100830000102F2D39FD38BD300E00093000203E1C7
:1008400000930102C2D396D382D308E145D400E0DD
:10085000019300E0019303E301938CD378D300E08C
:100860000093000208E100930102D6D383D36FD333
:1008700007E10093000200E000930102C3D37AD3A2
:1008800066D300E029D400E001930AEF019300E071
:10089000019370D35CD307E10093000200E0009362
:1008A00001028ED367D34CF052D307E100930002CC
:1008B00000E00093010289D35DD349D300E00093A7
:1008C000000272D357D343D307E10093000200E044
:1008D0000093010275D34ED34CF439D307E1009352
:1008E000000200E00093010270D344D330D309E04A
:1008F0000093000207E10093010289D33BD327D381
:100900000AE00093000207E1009301027BD332D397
:100910001ED30BE00093000207E10093010272D3A3
:1009200029D315D30CE00093000207E100930102E4
:100930006ED320D30CD300E0CFD300E0019306E6C2
:10094000019306E6019316D302D309E00093000257
:1009500000E00093010234D30DD34CF4F8D209E047
:100960000093000200E0009301022FD303D3EFD2E3
:100970000AE00093000200E00093010221D3FAD2C2
:100980004CF4E5D20AE00093000200E0009301027B
:100990001CD3F0D2DCD20BE00093000200E0009305
:1009A00001020ED3E7D24CF4D2D20BE00093000246
:1009B00000E00093010209D3DDD2C9D20CE000931C
:1009C000000200E000930102FBD2D4D24CF4BFD26B
:1009D0000CE00093000200E000930102F6D2CAD2BC
:1009E0006091180270911F02672311F42E9801C0C4
:1009F0002E9A009122020095602381F4A8D209E08A
:100A0000CCD2B8D2A4D20AE0C8D2B4D2A0D20BE0E1
:100A1000C4D2B0D29CD20CE0C0D2ACD238D087CCF9
:100A200096D209E1009300020AE100930102C8D2C4
:100A3000A1D24CF08CD209E1009300020AE10093AC
:100A40000102C3D297D283D20AE100930002ACD252
:100A500091D27DD209E1009300020AE100930102E4
:100A6000AFD288D24CF473D209E1009300020AE1BC
:100A700000930102AAD27ED208952A9A299A289A2E
:100A80005F9A02E003BD00270093B20008955FD291
:100A900000E022D303E001930FEF019300E0019304
:100AA00069D255D209E00093000200E000930102F0
:100AB00087D260D24CF04BD209E00093000200E0F4
:100AC0000093010282D256D242D20AE00093000281
:100AD00000E00093010274D24DD24CF038D20AE00B
:100AE0000093000200E0009301026FD243D22FD2A4
:100AF0000BE00093000200E00093010261D23AD2C1
:100B00004CF025D20BE00093000200E000930102BC
:100B10005CD230D21CD20CE00093000200E00093C3
:100B200001024ED227D24CF012D20CE00093000208
:100B300000E00093010249D21DD209D209E00093DE
:100B4000000202E000930102B3D214D200D20AE004
:100B50000093000202E000930102AAD20BD2F7D167
:100B60000BE00093000202E000930102A1D202D246
:100B7000EED10CE00093000202E00093010298D253
:100B8000F9D1E5D109E033D2F5D110910502DFD1D9
:100B90000AE02DD2EFD120910502D9D10BE027D266
:100BA000E9D130910502D3D10CE021D2E3D14091BB
:100BB00005020091B2000E37E0F350E0115010F43E
:100BC0002A9803C0000000000000215010F429986A
:100BD00003C0000000000000315010F4289803C04A
:100BE000000000000000415010F45F9803C00000B6
:100BF0000000000000000000000000005A95F1F61F
:100C000008950FE300937E0000E000937B0002E074
:100C100066D09DD10DE0E0D1ADD101E060D097D19B
:100C20000EE0DAD1A7D100E05AD091D10FE0D4D1B3
:100C3000A1D10895E3E0F0E068D100931E020FE334
:100C400000937E0000E000937B0003E048D0009119
:100C50001E0200230AF036D07AD10BE1BDD18AD131
:100C600076D10BE10093000204E00093010220D250
:100C700081D104E034D000911E0200230AF022D07A
:100C800066D10CE1A9D176D162D10CE100930002CA
:100C90000BE0009301020CD26DD105E020D0009151
:100CA0001E0200230AF00ED052D10DE195D162D17F
:100CB0004ED10DE10093000204E000930102F8D14F
:100CC00059D1089560910502709106020FEF6027D7
:100CD00003E0702760930502709306020895009365
:100CE0007C0006EC00937A0000917A0006FDFCCFB0
:100CF000609178007091790000270093040260935E
:100D000005027093060208950BEE6BE06A95F1F709
:100D10000A95D9F7EA95C1F70895DFB7499B06C050
:100D2000B0918400C0918500DFBF18958090840049
:100D3000909085008B1A9C0ADFBF1895DFB74A9BFD
:100D400006C02090840030908500DFBF1895A090E9
:100D50008400B0908500A218B308DFBF1895DFB7F4
:100D60004B9B06C04090840050908500DFBF1895D3
:100D7000C0908400D0908500C418D508DFBF1895B6
:100D8000DFB71F9B06C06090840070908500DFBFB6
:100D90001895E0908400F0908500E618F708DFBF12
:100DA0001895F894682D792D78947ED000270093BB
:100DB00004026093050270930602C9D005E00CD1CD
:100DC000D9D07CD0C4D001E00093000205E00093AC
:100DD0000102FBD0CFD0F8946A2D7B2D789464D09B
:100DE0000027009304026093050270930602AFD0BF
:100DF00005E0F2D0BFD062D0AAD002E0009300029A
:100E000005E000930102E1D0B5D0F8946C2D7D2D62
:100E100078944AD0002700930402609305027093EF
:100E2000060295D005E0D8D0A5D056D090D004E0E9
:100E30000093000205E000930102C7D09BD0F89414
:100E40006E2D7F2D789430D000270093040260939C
:100E50000502709306027BD005E0BED08BD02ED069
:100E600076D003E00093000205E000930102ADD0CC
:100E700081D00027009322026AD000E02DD100E04B
:100E8000019301E0019300E0019374D060D004E08D
:100E90000093000200E00093010292D06BD01CF49A
:100EA0000FEF00932202089577233AF40FEF6027A3
:100EB000702701E0600F0027701F08950091230242
:100EC000002349F444D005E0009300020EE10093B2
:100ED00001029DD04FD008953AD000E0FDD004E04B
:100EE00001930EE7019300E0019344D030D005E078
:100EF0000093000200E00093010289D03BD020F46F
:100F000026D005E04AD036D00895E1BDF2BD01E01B
:100F10000FBB00B50895F894F999FECFE1BDF2BD7D
:100F200000BD04E00FBB02E00FBB78940895EE27EC
:100F3000FF27EBDF00931A02E1E0FF27E6DF0093D3
:100F40001B02E2E0FF27E1DF00931C02089570938B
:100F5000090230930A0220930B0210930C02609353
:100F60000D0250930E0240930F02E0931002F09393
:100F7000110208957091090230910A0220910B022A
:100F800010910C0260910D0250910E0240910F02DF
:100F9000E0911002F091110208959ED00027019374
:100FA0000193019300830895ADD0632F522F412FF9
:100FB000332722271127361B250B140B9BD00895AE
:100FC00093D03617250714070895009101020FD01A
:100FD0000091000201D008957FD000910602019394
:100FE000009105020193009104020193089574D0C9
:100FF0000191009306020191009305020191009373
:101000000402089571D0360F251F141F73C06CD0D1
:10101000361B250B140B6EC067D0A12FA4271123FC
:1010200042F430952095109501E0300F0027201FE5
:10103000101F442342F460955095409501E0600FE5
:101040000027501F401F992788277727369F0F9228
:10105000910D0027801F701F359F900D811D701FFF
:10106000349F800D711D269F900D811D701F259F3F
:10107000800D711D249F700D169F800D711D159F91
:10108000700D0F90000C901F801F701FAA2342F458
:1010900090958095709501E0900F0027801F701F3C
:1010A000E0910202F091030271938193919308956C
:1010B00029D0009101021595279537950A95D9F702
:1010C000301F201F101F16C01191219131910895DA
:1010D0004191519161910895E0E0F1E0000F000F1E
:1010E000E00F0027F01F08950DD000910102F4DFFA
:1010F000EFDF0895E0910202F09103021193219332
:101100003193089500910002E7DFE0930202F0932B
:061110000302DADF08957E
:00000001FF
